{
  "contractName": "ERC20",
  "abi": [
    {
      "constant": true,
      "inputs": [],
      "name": "name",
      "outputs": [
        {
          "name": "",
          "type": "string"
        }
      ],
      "payable": false,
      "stateMutability": "view",
      "type": "function"
    },
    {
      "constant": true,
      "inputs": [],
      "name": "decimals",
      "outputs": [
        {
          "name": "",
          "type": "uint8"
        }
      ],
      "payable": false,
      "stateMutability": "view",
      "type": "function"
    },
    {
      "constant": true,
      "inputs": [],
      "name": "symbol",
      "outputs": [
        {
          "name": "",
          "type": "string"
        }
      ],
      "payable": false,
      "stateMutability": "view",
      "type": "function"
    },
    {
      "inputs": [
        {
          "name": "_initialAmount",
          "type": "uint256"
        },
        {
          "name": "_tokenName",
          "type": "string"
        },
        {
          "name": "_decimalUnits",
          "type": "uint8"
        },
        {
          "name": "_tokenSymbol",
          "type": "string"
        }
      ],
      "payable": false,
      "stateMutability": "nonpayable",
      "type": "constructor"
    },
    {
      "payable": true,
      "stateMutability": "payable",
      "type": "fallback"
    },
    {
      "anonymous": false,
      "inputs": [
        {
          "indexed": true,
          "name": "from",
          "type": "address"
        },
        {
          "indexed": true,
          "name": "to",
          "type": "address"
        },
        {
          "indexed": false,
          "name": "value",
          "type": "uint256"
        }
      ],
      "name": "Transfer",
      "type": "event"
    },
    {
      "anonymous": false,
      "inputs": [
        {
          "indexed": true,
          "name": "owner",
          "type": "address"
        },
        {
          "indexed": true,
          "name": "spender",
          "type": "address"
        },
        {
          "indexed": false,
          "name": "value",
          "type": "uint256"
        }
      ],
      "name": "Approval",
      "type": "event"
    },
    {
      "constant": false,
      "inputs": [
        {
          "name": "_to",
          "type": "address"
        },
        {
          "name": "_amount",
          "type": "uint256"
        }
      ],
      "name": "transfer",
      "outputs": [
        {
          "name": "success",
          "type": "bool"
        }
      ],
      "payable": false,
      "stateMutability": "nonpayable",
      "type": "function"
    },
    {
      "constant": true,
      "inputs": [],
      "name": "totalSupply",
      "outputs": [
        {
          "name": "tokenSupply",
          "type": "uint256"
        }
      ],
      "payable": false,
      "stateMutability": "view",
      "type": "function"
    },
    {
      "constant": true,
      "inputs": [
        {
          "name": "_tokenHolder",
          "type": "address"
        }
      ],
      "name": "balanceOf",
      "outputs": [
        {
          "name": "balance",
          "type": "uint256"
        }
      ],
      "payable": false,
      "stateMutability": "view",
      "type": "function"
    },
    {
      "constant": true,
      "inputs": [
        {
          "name": "_tokenHolder",
          "type": "address"
        },
        {
          "name": "_spender",
          "type": "address"
        }
      ],
      "name": "allowance",
      "outputs": [
        {
          "name": "remaining",
          "type": "uint256"
        }
      ],
      "payable": false,
      "stateMutability": "view",
      "type": "function"
    }
  ],
  "bytecode": "0x608060405234801561001057600080fd5b50604051610a9d380380610a9d8339810180604052608081101561003357600080fd5b8101908080519060200190929190805164010000000081111561005557600080fd5b8281019050602081018481111561006b57600080fd5b815185600182028301116401000000008211171561008857600080fd5b50509291906020018051906020019092919080516401000000008111156100ae57600080fd5b828101905060208101848111156100c457600080fd5b81518560018202830111640100000000821117156100e157600080fd5b505092919050505083600160003373ffffffffffffffffffffffffffffffffffffffff1673ffffffffffffffffffffffffffffffffffffffff1681526020019081526020016000208190555083600081905550826003908051906020019061014a9291906101ec565b5081600460006101000a81548160ff021916908360ff160217905550806005908051906020019061017c9291906101ec565b503373ffffffffffffffffffffffffffffffffffffffff16600073ffffffffffffffffffffffffffffffffffffffff167fddf252ad1be2c89b69c2b068fc378daa952ba7f163c4a11628f55a4df523b3ef866040518082815260200191505060405180910390a350505050610291565b828054600181600116156101000203166002900490600052602060002090601f016020900481019282601f1061022d57805160ff191683800117855561025b565b8280016001018555821561025b579182015b8281111561025a57825182559160200191906001019061023f565b5b509050610268919061026c565b5090565b61028e91905b8082111561028a576000816000905550600101610272565b5090565b90565b6107fd806102a06000396000f3fe608060405260043610610083576000357c0100000000000000000000000000000000000000000000000000000000900463ffffffff16806306fdde031461008857806318160ddd14610118578063313ce5671461014357806370a082311461017457806395d89b41146101d9578063a9059cbb14610269578063dd62ed3e146102dc575b600080fd5b34801561009457600080fd5b5061009d610361565b6040518080602001828103825283818151815260200191508051906020019080838360005b838110156100dd5780820151818401526020810190506100c2565b50505050905090810190601f16801561010a5780820380516001836020036101000a031916815260200191505b509250505060405180910390f35b34801561012457600080fd5b5061012d6103ff565b6040518082815260200191505060405180910390f35b34801561014f57600080fd5b50610158610408565b604051808260ff1660ff16815260200191505060405180910390f35b34801561018057600080fd5b506101c36004803603602081101561019757600080fd5b81019080803573ffffffffffffffffffffffffffffffffffffffff16906020019092919050505061041b565b6040518082815260200191505060405180910390f35b3480156101e557600080fd5b506101ee610464565b6040518080602001828103825283818151815260200191508051906020019080838360005b8381101561022e578082015181840152602081019050610213565b50505050905090810190601f16801561025b5780820380516001836020036101000a031916815260200191505b509250505060405180910390f35b34801561027557600080fd5b506102c26004803603604081101561028c57600080fd5b81019080803573ffffffffffffffffffffffffffffffffffffffff16906020019092919080359060200190929190505050610502565b604051808215151515815260200191505060405180910390f35b3480156102e857600080fd5b5061034b600480360360408110156102ff57600080fd5b81019080803573ffffffffffffffffffffffffffffffffffffffff169060200190929190803573ffffffffffffffffffffffffffffffffffffffff169060200190929190505050610713565b6040518082815260200191505060405180910390f35b60038054600181600116156101000203166002900480601f0160208091040260200160405190810160405280929190818152602001828054600181600116156101000203166002900480156103f75780601f106103cc576101008083540402835291602001916103f7565b820191906000526020600020905b8154815290600101906020018083116103da57829003601f168201915b505050505081565b60008054905090565b600460009054906101000a900460ff1681565b6000600160008373ffffffffffffffffffffffffffffffffffffffff1673ffffffffffffffffffffffffffffffffffffffff168152602001908152602001600020549050919050565b60058054600181600116156101000203166002900480601f0160208091040260200160405190810160405280929190818152602001828054600181600116156101000203166002900480156104fa5780601f106104cf576101008083540402835291602001916104fa565b820191906000526020600020905b8154815290600101906020018083116104dd57829003601f168201915b505050505081565b60008073ffffffffffffffffffffffffffffffffffffffff168373ffffffffffffffffffffffffffffffffffffffff161415151561053f57600080fd5b3073ffffffffffffffffffffffffffffffffffffffff168373ffffffffffffffffffffffffffffffffffffffff161415151561057a57600080fd5b6105cc82600160003373ffffffffffffffffffffffffffffffffffffffff1673ffffffffffffffffffffffffffffffffffffffff1681526020019081526020016000205461079a90919063ffffffff16565b600160003373ffffffffffffffffffffffffffffffffffffffff1673ffffffffffffffffffffffffffffffffffffffff1681526020019081526020016000208190555061066182600160008673ffffffffffffffffffffffffffffffffffffffff1673ffffffffffffffffffffffffffffffffffffffff168152602001908152602001600020546107b390919063ffffffff16565b600160008573ffffffffffffffffffffffffffffffffffffffff1673ffffffffffffffffffffffffffffffffffffffff168152602001908152602001600020819055508273ffffffffffffffffffffffffffffffffffffffff163373ffffffffffffffffffffffffffffffffffffffff167fddf252ad1be2c89b69c2b068fc378daa952ba7f163c4a11628f55a4df523b3ef846040518082815260200191505060405180910390a36001905092915050565b6000600260008473ffffffffffffffffffffffffffffffffffffffff1673ffffffffffffffffffffffffffffffffffffffff16815260200190815260200160002060008373ffffffffffffffffffffffffffffffffffffffff1673ffffffffffffffffffffffffffffffffffffffff16815260200190815260200160002054905092915050565b60008282111515156107a857fe5b818303905092915050565b60008082840190508381101515156107c757fe5b809150509291505056fea165627a7a7230582089c72a19b620fbdb857403d16ed9053a2a3a4a11792cf3de4a2470081d92badb0029",
  "source": "pragma solidity 0.5.0;\n\n\ninterface ApproveAndCallFallBack { function receiveApproval(address _from, uint256 _value, address _token, bytes calldata _extraData) external; }\n\nimport './SafeMath.sol';\n// ------------------------------------------------------------------------\n// Standard ERC20 Token Contract.\n// Fixed Supply with burn capabilities\n// ------------------------------------------------------------------------\ncontract ERC20 {\n    using SafeMath for uint;\n\n    // ------------------------------------------------------------------------\n    /// Token supply, balances and allowance\n    // ------------------------------------------------------------------------\n    uint internal supply;\n    mapping (address => uint) internal balances;\n    mapping (address => mapping (address => uint)) internal allowed;\n\n    // ------------------------------------------------------------------------\n    // Token Information\n    // ------------------------------------------------------------------------\n    string public name;                   // Full Token name\n    uint8 public decimals;                // How many decimals to show\n    string public symbol;                 // An identifier\n\n\n    // ------------------------------------------------------------------------\n    // Constructor\n    // ------------------------------------------------------------------------\n    constructor(uint _initialAmount, string memory _tokenName, uint8 _decimalUnits, string memory _tokenSymbol)\n    public {\n        balances[msg.sender] = _initialAmount;               // Give the creator all initial tokens\n        supply = _initialAmount;                        // Update total supply\n        name = _tokenName;                                   // Set the name for display purposes\n        decimals = _decimalUnits;                            // Amount of decimals for display purposes\n        symbol = _tokenSymbol;                               // Set the symbol for display purposes\n        emit Transfer(address(0), msg.sender, _initialAmount);    // Transfer event indicating token creation\n    }\n\n\n    // ------------------------------------------------------------------------\n    // Transfer _amount tokens to address _to\n    // Sender must have enough tokens. Cannot send to 0x0.\n    // ------------------------------------------------------------------------\n    function transfer(address _to, uint _amount)\n    public\n    returns (bool success) {\n        require(_to != address(0));         // Use burn() function instead\n        require(_to != address(this));\n        balances[msg.sender] = balances[msg.sender].sub(_amount);\n        balances[_to] = balances[_to].add(_amount);\n        emit Transfer(msg.sender, _to, _amount);\n        return true;\n    }\n\n    // // ------------------------------------------------------------------------\n    // // Transfer _amount of tokens if _from has allowed msg.sender to do so\n    // //  _from must have enough tokens + must have approved msg.sender\n    // // ------------------------------------------------------------------------\n    // function transferFrom(address _from, address _to, uint _amount)\n    // public\n    // returns (bool success) {\n    //     require(_to != address(0));\n    //     require(_to != address(this));\n    //     balances[_from] = balances[_from].sub(_amount);\n    //     allowed[_from][msg.sender] = allowed[_from][msg.sender].sub(_amount);\n    //     balances[_to] = balances[_to].add(_amount);\n    //     emit Transfer(_from, _to, _amount);\n    //     return true;\n    // }\n    //\n    // // ------------------------------------------------------------------------\n    // // Token owner can approve for `spender` to transferFrom(...) `tokens`\n    // // from the token owner's account\n    // // ------------------------------------------------------------------------\n    // function approve(address _spender, uint _amount)\n    // public\n    // returns (bool success) {\n    //     allowed[msg.sender][_spender] = _amount;\n    //     emit Approval(msg.sender, _spender, _amount);\n    //     return true;\n    // }\n    //\n    //\n    // // ------------------------------------------------------------------------\n    // // Token holder can notify a contract that it has been approved\n    // // to spend _amount of tokens\n    // // ------------------------------------------------------------------------\n    // function approveAndCall(address _spender, uint _amount, bytes _data)\n    // public\n    // returns (bool success) {\n    //     allowed[msg.sender][_spender] = _amount;\n    //     emit Approval(msg.sender, _spender, _amount);\n    //     ApproveAndCallFallBack(_spender).receiveApproval(msg.sender, _amount, this, _data);\n    //     return true;\n    // }\n\n    // ------------------------------------------------------------------------\n    // Returns the number of tokens in circulation\n    // ------------------------------------------------------------------------\n    function totalSupply()\n    public\n    view\n    returns (uint tokenSupply) {\n        return supply;\n    }\n\n    // ------------------------------------------------------------------------\n    // Returns the token balance of user\n    // ------------------------------------------------------------------------\n    function balanceOf(address _tokenHolder)\n    public\n    view\n    returns (uint balance) {\n        return balances[_tokenHolder];\n    }\n\n    // ------------------------------------------------------------------------\n    // Returns amount of tokens _spender is allowed to transfer or burn\n    // ------------------------------------------------------------------------\n    function allowance(address _tokenHolder, address _spender)\n    public\n    view\n    returns (uint remaining) {\n        return allowed[_tokenHolder][_spender];\n    }\n\n\n    // ------------------------------------------------------------------------\n    // Fallback function\n    // Won't accept ETH\n    // ------------------------------------------------------------------------\n    function ()\n    external\n    payable {\n        revert();\n    }\n\n    // ------------------------------------------------------------------------\n    // Event: Logs the amount of tokens burned and the address of the burner\n    // ------------------------------------------------------------------------\n    event Transfer(address indexed from, address indexed to, uint256 value);\n\n    event Approval(address indexed owner, address indexed spender, uint256 value);\n}\n",
  "sourcePath": "/home/dog/code/kyle/MerkleVote.sol/contracts/ERC20.sol",
  "compiler": {
    "name": "solc",
    "version": "0.5.0+commit.1d4f565a.Emscripten.clang"
  },
  "schemaVersion": "3.0.1",
  "updatedAt": "2019-01-09T14:46:34.251Z",
  "devdoc": {
    "methods": {}
  },
  "userdoc": {
    "methods": {}
  }
}