{
  "contractName": "HashHelpers",
  "abi": [
    {
      "constant": true,
      "inputs": [
        {
          "name": "_executionAddress",
          "type": "address"
        },
        {
          "name": "_methodID",
          "type": "bytes4"
        },
        {
          "name": "_parameterHash",
          "type": "bytes32"
        }
      ],
      "name": "getVoteID",
      "outputs": [
        {
          "name": "",
          "type": "bytes32"
        }
      ],
      "payable": false,
      "stateMutability": "pure",
      "type": "function"
    },
    {
      "constant": true,
      "inputs": [
        {
          "name": "_functionString",
          "type": "string"
        }
      ],
      "name": "getMethodID",
      "outputs": [
        {
          "name": "",
          "type": "bytes4"
        }
      ],
      "payable": false,
      "stateMutability": "pure",
      "type": "function"
    },
    {
      "constant": true,
      "inputs": [
        {
          "name": "_paramOne",
          "type": "address"
        },
        {
          "name": "_paramTwo",
          "type": "uint256"
        }
      ],
      "name": "getParameterHash",
      "outputs": [
        {
          "name": "",
          "type": "bytes32"
        }
      ],
      "payable": false,
      "stateMutability": "pure",
      "type": "function"
    },
    {
      "constant": true,
      "inputs": [
        {
          "name": "_elem",
          "type": "bytes32"
        }
      ],
      "name": "hashElement",
      "outputs": [
        {
          "name": "",
          "type": "bytes32"
        }
      ],
      "payable": false,
      "stateMutability": "pure",
      "type": "function"
    },
    {
      "constant": true,
      "inputs": [
        {
          "name": "_user",
          "type": "address"
        },
        {
          "name": "_balance",
          "type": "uint256"
        }
      ],
      "name": "leaf",
      "outputs": [
        {
          "name": "",
          "type": "bytes32"
        }
      ],
      "payable": false,
      "stateMutability": "pure",
      "type": "function"
    }
  ],
  "bytecode": "0x608060405234801561001057600080fd5b50610593806100206000396000f3fe608060405234801561001057600080fd5b5060043610610074576000357c0100000000000000000000000000000000000000000000000000000000900480632709f35a14610079578063424f33a8146100db57806351d41296146101e8578063cd9160981461022a578063d83b2bf8146102b5575b600080fd5b6100c56004803603604081101561008f57600080fd5b81019080803573ffffffffffffffffffffffffffffffffffffffff16906020019092919080359060200190929190505050610317565b6040518082815260200191505060405180910390f35b610194600480360360208110156100f157600080fd5b810190808035906020019064010000000081111561010e57600080fd5b82018360208201111561012057600080fd5b8035906020019184600183028401116401000000008311171561014257600080fd5b91908080601f016020809104026020016040519081016040528093929190818152602001838380828437600081840152601f19601f82011690508083019250505050505050919291929050505061038b565b60405180827bffffffffffffffffffffffffffffffffffffffffffffffffffffffff19167bffffffffffffffffffffffffffffffffffffffffffffffffffffffff1916815260200191505060405180910390f35b610214600480360360208110156101fe57600080fd5b8101908080359060200190929190505050610408565b6040518082815260200191505060405180910390f35b61029f6004803603606081101561024057600080fd5b81019080803573ffffffffffffffffffffffffffffffffffffffff16906020019092919080357bffffffffffffffffffffffffffffffffffffffffffffffffffffffff1916906020019092919080359060200190929190505050610438565b6040518082815260200191505060405180910390f35b610301600480360360408110156102cb57600080fd5b81019080803573ffffffffffffffffffffffffffffffffffffffff169060200190929190803590602001909291905050506104f3565b6040518082815260200191505060405180910390f35b60008282604051602001808373ffffffffffffffffffffffffffffffffffffffff1673ffffffffffffffffffffffffffffffffffffffff166c010000000000000000000000000281526014018281526020019250505060405160208183030381529060405280519060200120905092915050565b6000816040516020018082805190602001908083835b6020831015156103c657805182526020820191506020810190506020830392506103a1565b6001836020036101000a038019825116818451168082178552505050505050905001915050604051602081830303815290604052805190602001209050919050565b60008160405160200180828152602001915050604051602081830303815290604052805190602001209050919050565b6000838383604051602001808473ffffffffffffffffffffffffffffffffffffffff1673ffffffffffffffffffffffffffffffffffffffff166c01000000000000000000000000028152601401837bffffffffffffffffffffffffffffffffffffffffffffffffffffffff19167bffffffffffffffffffffffffffffffffffffffffffffffffffffffff1916815260040182815260200193505050506040516020818303038152906040528051906020012090509392505050565b60008282604051602001808373ffffffffffffffffffffffffffffffffffffffff1673ffffffffffffffffffffffffffffffffffffffff166c01000000000000000000000000028152601401828152602001925050506040516020818303038152906040528051906020012090509291505056fea165627a7a7230582025765e07ad835a45c48eef94f482ce88b01c3d430821edb2e2c55523c5161c380029",
  "source": "pragma solidity >=0.5.0 <0.6.0;\n\ncontract HashHelpers {\n\n\n  function getVoteID(address _executionAddress, bytes4 _methodID, bytes32 _parameterHash)\n  public\n  pure\n  returns (bytes32) {\n    return keccak256(abi.encodePacked(_executionAddress, _methodID, _parameterHash));\n  }\n\n  function getMethodID(string memory _functionString)\n  public\n  pure\n  returns (bytes4) {\n    return bytes4(keccak256(abi.encodePacked(_functionString)));\n  }\n\n  function getParameterHash(address _paramOne, uint _paramTwo)\n  public\n  pure\n  returns (bytes32) {\n    return keccak256(abi.encodePacked(_paramOne, _paramTwo));\n  }\n\n  function hashElement(bytes32 _elem)\n  public\n  pure\n  returns (bytes32) {\n    return keccak256(abi.encodePacked(_elem));\n  }\n\n  function leaf(address _user, uint _balance)\n  public\n  pure\n  returns (bytes32) {\n    return keccak256(abi.encodePacked(_user, _balance));\n  }\n\n}\n",
  "sourcePath": "/home/dog/code/kyle/MerkleVote.sol/contracts/HashHelpers.sol",
  "compiler": {
    "name": "solc",
    "version": "0.5.2+commit.1df8f40c.Emscripten.clang"
  },
  "schemaVersion": "3.0.1",
  "updatedAt": "2019-01-17T07:11:40.980Z",
  "devdoc": {
    "methods": {}
  },
  "userdoc": {
    "methods": {}
  }
}