{
  "contractName": "HashHelpers",
  "abi": [
    {
      "constant": true,
      "inputs": [
        {
          "name": "_executionAddress",
          "type": "address"
        },
        {
          "name": "_methodID",
          "type": "bytes4"
        },
        {
          "name": "_parameterHash",
          "type": "bytes32"
        }
      ],
      "name": "getVoteID",
      "outputs": [
        {
          "name": "",
          "type": "bytes32"
        }
      ],
      "payable": false,
      "stateMutability": "pure",
      "type": "function"
    },
    {
      "constant": true,
      "inputs": [
        {
          "name": "_functionString",
          "type": "string"
        }
      ],
      "name": "getMethodID",
      "outputs": [
        {
          "name": "",
          "type": "bytes4"
        }
      ],
      "payable": false,
      "stateMutability": "pure",
      "type": "function"
    },
    {
      "constant": true,
      "inputs": [
        {
          "name": "_paramOne",
          "type": "address"
        },
        {
          "name": "_paramTwo",
          "type": "uint256"
        }
      ],
      "name": "getParameterHash",
      "outputs": [
        {
          "name": "",
          "type": "bytes32"
        }
      ],
      "payable": false,
      "stateMutability": "pure",
      "type": "function"
    },
    {
      "constant": true,
      "inputs": [
        {
          "name": "_elem",
          "type": "bytes32"
        }
      ],
      "name": "hashElement",
      "outputs": [
        {
          "name": "",
          "type": "bytes32"
        }
      ],
      "payable": false,
      "stateMutability": "pure",
      "type": "function"
    },
    {
      "constant": true,
      "inputs": [
        {
          "name": "_user",
          "type": "address"
        },
        {
          "name": "_balance",
          "type": "uint256"
        }
      ],
      "name": "leaf",
      "outputs": [
        {
          "name": "",
          "type": "bytes32"
        }
      ],
      "payable": false,
      "stateMutability": "pure",
      "type": "function"
    }
  ],
  "bytecode": "0x608060405234801561001057600080fd5b506105cd806100206000396000f3fe60806040526004361061006d576000357c0100000000000000000000000000000000000000000000000000000000900463ffffffff1680632709f35a14610072578063424f33a8146100e157806351d41296146101fb578063cd9160981461024a578063d83b2bf8146102e2575b600080fd5b34801561007e57600080fd5b506100cb6004803603604081101561009557600080fd5b81019080803573ffffffffffffffffffffffffffffffffffffffff16906020019092919080359060200190929190505050610351565b6040518082815260200191505060405180910390f35b3480156100ed57600080fd5b506101a76004803603602081101561010457600080fd5b810190808035906020019064010000000081111561012157600080fd5b82018360208201111561013357600080fd5b8035906020019184600183028401116401000000008311171561015557600080fd5b91908080601f016020809104026020016040519081016040528093929190818152602001838380828437600081840152601f19601f8201169050808301925050505050505091929192905050506103c5565b60405180827bffffffffffffffffffffffffffffffffffffffffffffffffffffffff19167bffffffffffffffffffffffffffffffffffffffffffffffffffffffff1916815260200191505060405180910390f35b34801561020757600080fd5b506102346004803603602081101561021e57600080fd5b8101908080359060200190929190505050610442565b6040518082815260200191505060405180910390f35b34801561025657600080fd5b506102cc6004803603606081101561026d57600080fd5b81019080803573ffffffffffffffffffffffffffffffffffffffff16906020019092919080357bffffffffffffffffffffffffffffffffffffffffffffffffffffffff1916906020019092919080359060200190929190505050610472565b6040518082815260200191505060405180910390f35b3480156102ee57600080fd5b5061033b6004803603604081101561030557600080fd5b81019080803573ffffffffffffffffffffffffffffffffffffffff1690602001909291908035906020019092919050505061052d565b6040518082815260200191505060405180910390f35b60008282604051602001808373ffffffffffffffffffffffffffffffffffffffff1673ffffffffffffffffffffffffffffffffffffffff166c010000000000000000000000000281526014018281526020019250505060405160208183030381529060405280519060200120905092915050565b6000816040516020018082805190602001908083835b60208310151561040057805182526020820191506020810190506020830392506103db565b6001836020036101000a038019825116818451168082178552505050505050905001915050604051602081830303815290604052805190602001209050919050565b60008160405160200180828152602001915050604051602081830303815290604052805190602001209050919050565b6000838383604051602001808473ffffffffffffffffffffffffffffffffffffffff1673ffffffffffffffffffffffffffffffffffffffff166c01000000000000000000000000028152601401837bffffffffffffffffffffffffffffffffffffffffffffffffffffffff19167bffffffffffffffffffffffffffffffffffffffffffffffffffffffff1916815260040182815260200193505050506040516020818303038152906040528051906020012090509392505050565b60008282604051602001808373ffffffffffffffffffffffffffffffffffffffff1673ffffffffffffffffffffffffffffffffffffffff166c01000000000000000000000000028152601401828152602001925050506040516020818303038152906040528051906020012090509291505056fea165627a7a723058203a2855ed5f1d5e47fd83473a0cecb2b3cabea9892989b8a113c6ed470e1294e50029",
  "source": "pragma solidity 0.5.0;\n\ncontract HashHelpers {\n\n\n  function getVoteID(address _executionAddress, bytes4 _methodID, bytes32 _parameterHash)\n  public\n  pure\n  returns (bytes32) {\n    return keccak256(abi.encodePacked(_executionAddress, _methodID, _parameterHash));\n  }\n\n  function getMethodID(string memory _functionString)\n  public\n  pure\n  returns (bytes4) {\n    return bytes4(keccak256(abi.encodePacked(_functionString)));\n  }\n\n  function getParameterHash(address _paramOne, uint _paramTwo)\n  public\n  pure\n  returns (bytes32) {\n    return keccak256(abi.encodePacked(_paramOne, _paramTwo));\n  }\n\n  function hashElement(bytes32 _elem)\n  public\n  pure\n  returns (bytes32) {\n    return keccak256(abi.encodePacked(_elem));\n  }\n\n  function leaf(address _user, uint _balance)\n  public\n  pure\n  returns (bytes32) {\n    return keccak256(abi.encodePacked(_user, _balance));\n  }\n\n}\n",
  "sourcePath": "/home/dog/code/kyle/MerkleVote.sol/contracts/HashHelpers.sol",
  "compiler": {
    "name": "solc",
    "version": "0.5.0+commit.1d4f565a.Emscripten.clang"
  },
  "schemaVersion": "3.0.1",
  "updatedAt": "2019-01-09T14:46:34.252Z",
  "devdoc": {
    "methods": {}
  },
  "userdoc": {
    "methods": {}
  }
}