{
  "contractName": "MerkleVote",
  "abi": [
    {
      "constant": true,
      "inputs": [
        {
          "name": "",
          "type": "bytes32"
        }
      ],
      "name": "votes",
      "outputs": [
        {
          "name": "token",
          "type": "address"
        },
        {
          "name": "yesVotes",
          "type": "uint256"
        },
        {
          "name": "noVotes",
          "type": "uint256"
        },
        {
          "name": "root",
          "type": "bytes32"
        }
      ],
      "payable": false,
      "stateMutability": "view",
      "type": "function"
    },
    {
      "constant": false,
      "inputs": [
        {
          "name": "_voteID",
          "type": "bytes32"
        },
        {
          "name": "_voteYes",
          "type": "bool"
        },
        {
          "name": "_balanceAtSnapshot",
          "type": "uint256"
        },
        {
          "name": "_root",
          "type": "bytes32"
        },
        {
          "name": "_proof",
          "type": "bytes32[]"
        }
      ],
      "name": "vote",
      "outputs": [
        {
          "name": "",
          "type": "bool"
        }
      ],
      "payable": false,
      "stateMutability": "nonpayable",
      "type": "function"
    },
    {
      "constant": false,
      "inputs": [
        {
          "name": "_token",
          "type": "address"
        },
        {
          "name": "_tokenHolders",
          "type": "address[]"
        },
        {
          "name": "_voteID",
          "type": "bytes32"
        }
      ],
      "name": "createVote",
      "outputs": [
        {
          "name": "",
          "type": "bool"
        }
      ],
      "payable": false,
      "stateMutability": "nonpayable",
      "type": "function"
    },
    {
      "constant": true,
      "inputs": [
        {
          "name": "elements",
          "type": "bytes32[]"
        }
      ],
      "name": "createTree",
      "outputs": [
        {
          "name": "",
          "type": "bytes32"
        }
      ],
      "payable": false,
      "stateMutability": "pure",
      "type": "function"
    },
    {
      "constant": true,
      "inputs": [
        {
          "name": "_token",
          "type": "address"
        },
        {
          "name": "_tokenHolders",
          "type": "address[]"
        }
      ],
      "name": "hashRawData",
      "outputs": [
        {
          "name": "elements",
          "type": "bytes32[]"
        }
      ],
      "payable": false,
      "stateMutability": "view",
      "type": "function"
    },
    {
      "constant": true,
      "inputs": [
        {
          "name": "elements",
          "type": "bytes32[]"
        }
      ],
      "name": "hashLayer",
      "outputs": [
        {
          "name": "",
          "type": "bytes32[]"
        }
      ],
      "payable": false,
      "stateMutability": "pure",
      "type": "function"
    },
    {
      "constant": true,
      "inputs": [
        {
          "name": "_proof",
          "type": "bytes32[]"
        },
        {
          "name": "_root",
          "type": "bytes32"
        },
        {
          "name": "_leaf",
          "type": "bytes32"
        }
      ],
      "name": "verifyProof",
      "outputs": [
        {
          "name": "",
          "type": "bool"
        }
      ],
      "payable": false,
      "stateMutability": "pure",
      "type": "function"
    },
    {
      "constant": true,
      "inputs": [
        {
          "name": "_firstElem",
          "type": "bytes32"
        },
        {
          "name": "_secondElem",
          "type": "bytes32"
        }
      ],
      "name": "getHash",
      "outputs": [
        {
          "name": "",
          "type": "bytes32"
        }
      ],
      "payable": false,
      "stateMutability": "pure",
      "type": "function"
    },
    {
      "constant": true,
      "inputs": [
        {
          "name": "_user",
          "type": "address"
        },
        {
          "name": "_balance",
          "type": "uint256"
        }
      ],
      "name": "leaf",
      "outputs": [
        {
          "name": "",
          "type": "bytes32"
        }
      ],
      "payable": false,
      "stateMutability": "pure",
      "type": "function"
    }
  ],
  "bytecode": "0x608060405234801561001057600080fd5b506110d3806100206000396000f3fe608060405234801561001057600080fd5b50600436106100b0576000357c010000000000000000000000000000000000000000000000000000000090048063a9f4476d11610083578063a9f4476d14610395578063c43b44fe14610450578063d83b2bf81461051c578063daa4b8b41461057e578063f971559d1461068b576100b0565b80632b38cd96146100b557806344c4f39e146101385780634bc935d71461026557806380c9597f14610349575b600080fd5b6100e1600480360360208110156100cb57600080fd5b8101908080359060200190929190505050610785565b604051808573ffffffffffffffffffffffffffffffffffffffff1673ffffffffffffffffffffffffffffffffffffffff16815260200184815260200183815260200182815260200194505050505060405180910390f35b61020e6004803603604081101561014e57600080fd5b81019080803573ffffffffffffffffffffffffffffffffffffffff1690602001909291908035906020019064010000000081111561018b57600080fd5b82018360208201111561019d57600080fd5b803590602001918460208302840111640100000000831117156101bf57600080fd5b919080806020026020016040519081016040528093929190818152602001838360200280828437600081840152601f19601f8201169050808301925050505050505091929192905050506107d5565b6040518080602001828103825283818151815260200191508051906020019060200280838360005b83811015610251578082015181840152602081019050610236565b505050509050019250505060405180910390f35b61032f6004803603606081101561027b57600080fd5b810190808035906020019064010000000081111561029857600080fd5b8201836020820111156102aa57600080fd5b803590602001918460208302840111640100000000831117156102cc57600080fd5b919080806020026020016040519081016040528093929190818152602001838360200280828437600081840152601f19601f8201169050808301925050505050505091929192908035906020019092919080359060200190929190505050610983565b604051808215151515815260200191505060405180910390f35b61037f6004803603604081101561035f57600080fd5b8101908080359060200190929190803590602001909291905050506109d6565b6040518082815260200191505060405180910390f35b610436600480360360a08110156103ab57600080fd5b81019080803590602001909291908035151590602001909291908035906020019092919080359060200190929190803590602001906401000000008111156103f257600080fd5b82018360208201111561040457600080fd5b8035906020019184602083028401116401000000008311171561042657600080fd5b9091929391929390505050610a4e565b604051808215151515815260200191505060405180910390f35b6105066004803603602081101561046657600080fd5b810190808035906020019064010000000081111561048357600080fd5b82018360208201111561049557600080fd5b803590602001918460208302840111640100000000831117156104b757600080fd5b919080806020026020016040519081016040528093929190818152602001838360200280828437600081840152601f19601f820116905080830192505050505050509192919290505050610bcb565b6040518082815260200191505060405180910390f35b6105686004803603604081101561053257600080fd5b81019080803573ffffffffffffffffffffffffffffffffffffffff16906020019092919080359060200190929190505050610db4565b6040518082815260200191505060405180910390f35b6106346004803603602081101561059457600080fd5b81019080803590602001906401000000008111156105b157600080fd5b8201836020820111156105c357600080fd5b803590602001918460208302840111640100000000831117156105e557600080fd5b919080806020026020016040519081016040528093929190818152602001838360200280828437600081840152601f19601f820116905080830192505050505050509192919290505050610e28565b6040518080602001828103825283818151815260200191508051906020019060200280838360005b8381101561067757808201518184015260208101905061065c565b505050509050019250505060405180910390f35b61076b600480360360608110156106a157600080fd5b81019080803573ffffffffffffffffffffffffffffffffffffffff169060200190929190803590602001906401000000008111156106de57600080fd5b8201836020820111156106f057600080fd5b8035906020019184602083028401116401000000008311171561071257600080fd5b919080806020026020016040519081016040528093929190818152602001838360200280828437600081840152601f19601f82011690508083019250505050505050919291929080359060200190929190505050610fab565b604051808215151515815260200191505060405180910390f35b60006020528060005260406000206000915090508060000160009054906101000a900473ffffffffffffffffffffffffffffffffffffffff16908060010154908060020154908060030154905084565b606081516040519080825280602002602001820160405280156108075781602001602082028038833980820191505090505b50905060008060008090505b84518161ffff161015610977578573ffffffffffffffffffffffffffffffffffffffff166370a08231868361ffff1681518110151561084e57fe5b906020019060200201516040518263ffffffff167c0100000000000000000000000000000000000000000000000000000000028152600401808273ffffffffffffffffffffffffffffffffffffffff1673ffffffffffffffffffffffffffffffffffffffff16815260200191505060206040518083038186803b1580156108d457600080fd5b505afa1580156108e8573d6000803e3d6000fd5b505050506040513d60208110156108fe57600080fd5b8101908080519060200190929190505050925060008311151561092057600080fd5b828201915061094a858261ffff1681518110151561093a57fe5b9060200190602002015184610db4565b848261ffff1681518110151561095c57fe5b90602001906020020181815250508080600101915050610813565b50829250505092915050565b60008082905060008090505b85518110156109c8576109b98287838151811015156109aa57fe5b906020019060200201516109d6565b9150808060010191505061098f565b508381149150509392505050565b600081831015610a165782826040516020018083815260200182815260200192505050604051602081830303815290604052805190602001209050610a48565b818360405160200180838152602001828152602001925050506040516020818303038152906040528051906020012090505b92915050565b6000806000808981526020019081526020016000209050848160030154141515610a7757600080fd5b8060040160003373ffffffffffffffffffffffffffffffffffffffff1673ffffffffffffffffffffffffffffffffffffffff16815260200190815260200160002060009054906101000a900460ff16151515610ad257600080fd5b610b27848480806020026020016040519081016040528093929190818152602001838360200280828437600081840152601f19601f8201169050808301925050505050505086610b22338a610db4565b610983565b1515610b3257600080fd5b60018160040160003373ffffffffffffffffffffffffffffffffffffffff1673ffffffffffffffffffffffffffffffffffffffff16815260200190815260200160002060006101000a81548160ff0219169083151502179055508615610ba957858160010160008282540192505081905550610bbc565b8581600201600082825401925050819055505b60019150509695505050505050565b6000808251905060018161ffff161415610c2657826000815181101515610bee57fe5b906020019060200201516040516020018082815260200191505060405160208183030381529060405280519060200120915050610daf565b5b60018161ffff161115610d925760008090505b8161ffff16811015610ca857610c818482815181101515610c5757fe5b906020019060200201518560018401815181101515610c7257fe5b906020019060200201516109d6565b8482815181101515610c8f57fe5b9060200190602002018181525050600281019050610c3a565b50600060028451811515610cb857fe5b06141515610d7957826001820361ffff16815181101515610cd557fe5b90602001906020020151836001830361ffff16815181101515610cf457fe5b9060200190602002015160405160200180838152602001828152602001925050506040516020818303038152906040528051906020012083600160028461ffff16811515610d3e57fe5b040161ffff16815181101515610d5057fe5b9060200190602002018181525050600160028261ffff16811515610d7057fe5b04019050610d8d565b60028161ffff16811515610d8957fe5b0490505b610c27565b826000815181101515610da157fe5b906020019060200201519150505b919050565b60008282604051602001808373ffffffffffffffffffffffffffffffffffffffff1673ffffffffffffffffffffffffffffffffffffffff166c010000000000000000000000000281526014018281526020019250505060405160208183030381529060405280519060200120905092915050565b6060600060028351811515610e3957fe5b0660028451811515610e4757fe5b0401905060608161ffff16604051908082528060200260200182016040528015610e805781602001602082028038833980820191505090505b509050600080600090505b8551811015610f0257610ecf8682815181101515610ea557fe5b906020019060200201518760018401815181101515610ec057fe5b906020019060200201516109d6565b838361ffff16815181101515610ee157fe5b90602001906020020181815250508180600101925050600281019050610e8b565b50600060028651811515610f1257fe5b06141515610fa057846001865103815181101515610f2c57fe5b90602001906020020151856001875103815181101515610f4857fe5b90602001906020020151604051602001808381526020018281526020019250505060405160208183030381529060405280519060200120828261ffff16815181101515610f9157fe5b90602001906020020181815250505b819350505050919050565b600060c88351101515610fbd57600080fd5b60008060008481526020019081526020016000209050600073ffffffffffffffffffffffffffffffffffffffff168160000160009054906101000a900473ffffffffffffffffffffffffffffffffffffffff1673ffffffffffffffffffffffffffffffffffffffff1614151561103257600080fd5b848160000160006101000a81548173ffffffffffffffffffffffffffffffffffffffff021916908373ffffffffffffffffffffffffffffffffffffffff160217905550606061108186866107d5565b9050600061108e82610bcb565b905080836003018190555060019350505050939250505056fea165627a7a723058208f1d4c698847e6beb4f56114ec98fa80eecb94135c3444497edd9cc26892f4c70029",
  "source": "pragma solidity >=0.5.0 <0.6.0;\n\ninterface Token {\n  function totalSupply() external view returns (uint256);\n  function balanceOf(address _who) external view returns (uint256);\n}\n\nimport './SafeMath.sol';\n\n\ncontract MerkleVote {\n\n  struct Vote {\n      address token;\n      uint256 yesVotes;\n      uint256 noVotes;\n      bytes32 root;\n      mapping (address => bool) voted;\n  }\n\n  mapping (bytes32 => Vote) public votes;\n\n\n  // constructor()\n  // public {\n  // }\n\n  function vote(bytes32 _voteID, bool _voteYes, uint256 _balanceAtSnapshot, bytes32 _root, bytes32[] calldata _proof)\n  external\n  returns (bool) {\n    Vote storage thisVote = votes[_voteID];\n    require(thisVote.root == _root);\n    require(!thisVote.voted[msg.sender]);\n    require(verifyProof(_proof, _root, leaf(msg.sender, _balanceAtSnapshot)));\n    thisVote.voted[msg.sender] = true;\n    if (_voteYes) { thisVote.yesVotes += _balanceAtSnapshot; }\n    else { thisVote.noVotes += _balanceAtSnapshot; }\n    return true;\n  }\n\n  function createVote(address _token, address[] memory _tokenHolders, bytes32 _voteID)\n  public\n  returns (bool) {\n      require(_tokenHolders.length < 200);\n      Vote storage newVote = votes[_voteID];\n      require(newVote.token == address(0));\n      newVote.token = _token;\n      bytes32[] memory elements = hashRawData(_token, _tokenHolders);\n      bytes32 root = createTree(elements);\n      newVote.root = root;\n      return true;\n  }\n\n\n  function createTree(bytes32[] memory elements)\n  public\n  pure\n  returns (bytes32) {\n    uint16 numElements = uint16(elements.length);\n    if (numElements == 1) { return keccak256(abi.encodePacked(elements[0])); }\n    while (numElements > 1) {\n      for (uint i = 0; i < numElements; i+=2) {\n        elements[i] = getHash(elements[i], elements[i+1]);\n      }\n      if (elements.length % 2 != 0){\n        elements[(numElements / 2) + 1] = keccak256(abi.encodePacked(elements[numElements-1], elements[numElements-1]));\n        numElements = (numElements / 2) + 1;\n      }\n      else { numElements = numElements / 2; }\n    }\n    return elements[0];\n  }\n\n  function hashRawData(address _token, address[] memory _tokenHolders)\n  public\n  view\n  returns (bytes32[] memory elements) {\n    elements = new bytes32[](_tokenHolders.length);\n    uint256 balance;\n    uint256 totalSupply;\n    for (uint16 i = 0; i < _tokenHolders.length; i++) {\n      balance = Token(_token).balanceOf(_tokenHolders[i]);\n      require(balance > 0);   // only users with tokens can participate\n      totalSupply += balance;\n      elements[i] = leaf(_tokenHolders[i], balance);\n    }\n    // assert(totalSupply == votingToken.totalSupply());\n    return elements;\n  }\n\n  function hashLayer(bytes32[] memory elements)\n  public\n  pure\n  returns (bytes32[] memory){\n    uint16 numElementsNextLayer = uint16((elements.length / 2) + (elements.length % 2));\n    bytes32[] memory layer = new bytes32[](numElementsNextLayer);\n    uint16 counter;\n    for (uint i = 0; i < elements.length; i+=2) {\n      layer[counter] = getHash(elements[i], elements[i+1]);\n      counter++;\n    }\n    if (elements.length % 2 != 0){    // If odd number of elements, hash the last element with itself\n      layer[counter] = keccak256(abi.encodePacked(elements[elements.length-1], elements[elements.length-1]));\n    }\n    return layer;\n  }\n\n  /**\n   * @dev Verifies a Merkle proof proving the existence of a leaf in a Merkle tree. Assumes that each pair of leaves\n   * and each pair of pre-images are sorted.\n   * @param _proof Merkle proof containing sibling hashes on the branch from the leaf to the root of the Merkle tree\n   * @param _root Merkle root\n   * @param _leaf Leaf of Merkle tree\n   */\n  function verifyProof(bytes32[] memory _proof, bytes32 _root, bytes32 _leaf)\n  public\n  pure\n  returns (bool) {\n    bytes32 computedHash = _leaf;\n    for (uint256 i = 0; i < _proof.length; i++) {\n      computedHash = getHash(computedHash, _proof[i]);\n    }\n    return computedHash == _root;\n  }\n\n  function getHash(bytes32 _firstElem, bytes32 _secondElem)\n  public\n  pure\n  returns(bytes32) {\n    if (_firstElem < _secondElem){\n      return keccak256(abi.encodePacked(_firstElem, _secondElem));\n    }\n    else{\n      return keccak256(abi.encodePacked(_secondElem, _firstElem));\n    }\n  }\n\n  function leaf(address _user, uint _balance)\n  public\n  pure\n  returns (bytes32) {\n    return keccak256(abi.encodePacked(_user, _balance));\n  }\n\n\n}\n",
  "sourcePath": "/home/dog/code/kyle/MerkleVote.sol/contracts/MerkleVote.sol",
  "compiler": {
    "name": "solc",
    "version": "0.5.2+commit.1df8f40c.Emscripten.clang"
  },
  "schemaVersion": "3.0.1",
  "updatedAt": "2019-01-17T07:11:40.997Z",
  "devdoc": {
    "methods": {
      "verifyProof(bytes32[],bytes32,bytes32)": {
        "details": "Verifies a Merkle proof proving the existence of a leaf in a Merkle tree. Assumes that each pair of leaves and each pair of pre-images are sorted.",
        "params": {
          "_leaf": "Leaf of Merkle tree",
          "_proof": "Merkle proof containing sibling hashes on the branch from the leaf to the root of the Merkle tree",
          "_root": "Merkle root"
        }
      }
    }
  },
  "userdoc": {
    "methods": {}
  }
}