{
  "contractName": "MerkleVote",
  "abi": [
    {
      "constant": true,
      "inputs": [
        {
          "name": "",
          "type": "bytes32"
        }
      ],
      "name": "merkleRoot",
      "outputs": [
        {
          "name": "",
          "type": "bytes32"
        }
      ],
      "payable": false,
      "stateMutability": "view",
      "type": "function"
    },
    {
      "constant": true,
      "inputs": [],
      "name": "securityDeposit",
      "outputs": [
        {
          "name": "",
          "type": "uint256"
        }
      ],
      "payable": false,
      "stateMutability": "view",
      "type": "function"
    },
    {
      "constant": true,
      "inputs": [
        {
          "name": "",
          "type": "bytes32"
        }
      ],
      "name": "numVotes",
      "outputs": [
        {
          "name": "",
          "type": "uint256"
        }
      ],
      "payable": false,
      "stateMutability": "view",
      "type": "function"
    },
    {
      "constant": true,
      "inputs": [
        {
          "name": "",
          "type": "bytes32"
        }
      ],
      "name": "voted",
      "outputs": [
        {
          "name": "",
          "type": "bool"
        }
      ],
      "payable": false,
      "stateMutability": "view",
      "type": "function"
    },
    {
      "constant": true,
      "inputs": [],
      "name": "votingToken",
      "outputs": [
        {
          "name": "",
          "type": "address"
        }
      ],
      "payable": false,
      "stateMutability": "view",
      "type": "function"
    },
    {
      "inputs": [
        {
          "name": "_votingToken",
          "type": "address"
        }
      ],
      "payable": false,
      "stateMutability": "nonpayable",
      "type": "constructor"
    },
    {
      "constant": false,
      "inputs": [
        {
          "name": "_voteID",
          "type": "bytes32"
        },
        {
          "name": "_balanceAtSnapshot",
          "type": "uint256"
        },
        {
          "name": "_root",
          "type": "bytes32"
        },
        {
          "name": "_proof",
          "type": "bytes32[]"
        }
      ],
      "name": "vote",
      "outputs": [
        {
          "name": "",
          "type": "bool"
        }
      ],
      "payable": false,
      "stateMutability": "nonpayable",
      "type": "function"
    },
    {
      "constant": false,
      "inputs": [
        {
          "name": "_tokenHolders",
          "type": "address[]"
        }
      ],
      "name": "createVote",
      "outputs": [
        {
          "name": "",
          "type": "bool"
        }
      ],
      "payable": false,
      "stateMutability": "nonpayable",
      "type": "function"
    },
    {
      "constant": true,
      "inputs": [
        {
          "name": "elements",
          "type": "bytes32[]"
        }
      ],
      "name": "createRootProof",
      "outputs": [
        {
          "name": "",
          "type": "bytes32"
        }
      ],
      "payable": false,
      "stateMutability": "pure",
      "type": "function"
    },
    {
      "constant": true,
      "inputs": [
        {
          "name": "_tokenHolders",
          "type": "address[]"
        }
      ],
      "name": "prepareTree",
      "outputs": [
        {
          "name": "",
          "type": "bytes32[]"
        }
      ],
      "payable": false,
      "stateMutability": "view",
      "type": "function"
    },
    {
      "constant": true,
      "inputs": [
        {
          "name": "_firstElem",
          "type": "bytes32"
        },
        {
          "name": "_secondElem",
          "type": "bytes32"
        }
      ],
      "name": "getHash",
      "outputs": [
        {
          "name": "",
          "type": "bytes32"
        }
      ],
      "payable": false,
      "stateMutability": "pure",
      "type": "function"
    },
    {
      "constant": false,
      "inputs": [
        {
          "name": "_executionAddress",
          "type": "address"
        },
        {
          "name": "_methodID",
          "type": "bytes4"
        },
        {
          "name": "_parameterHash",
          "type": "bytes32"
        }
      ],
      "name": "getVoteID",
      "outputs": [
        {
          "name": "",
          "type": "bytes32"
        }
      ],
      "payable": false,
      "stateMutability": "nonpayable",
      "type": "function"
    },
    {
      "constant": true,
      "inputs": [
        {
          "name": "_functionString",
          "type": "string"
        }
      ],
      "name": "getMethodID",
      "outputs": [
        {
          "name": "",
          "type": "bytes4"
        }
      ],
      "payable": false,
      "stateMutability": "pure",
      "type": "function"
    },
    {
      "constant": true,
      "inputs": [
        {
          "name": "_paramOne",
          "type": "address"
        },
        {
          "name": "_paramTwo",
          "type": "uint256"
        }
      ],
      "name": "getParameterHash",
      "outputs": [
        {
          "name": "",
          "type": "bytes32"
        }
      ],
      "payable": false,
      "stateMutability": "pure",
      "type": "function"
    }
  ],
  "bytecode": "0x608060405234801561001057600080fd5b5060405160208061167183398101806040528101908080519060200190929190505050806000806101000a81548173ffffffffffffffffffffffffffffffffffffffff021916908373ffffffffffffffffffffffffffffffffffffffff160217905550506115ee806100836000396000f3006080604052600436106100c5576000357c0100000000000000000000000000000000000000000000000000000000900463ffffffff16806309399715146100ca578063220e5ab3146101175780632709f35a14610142578063317e0610146101ab578063424f33a8146101f05780636774ca90146102ab57806380c9597f1461032957806380f28bf714610384578063887c42511461043f578063b034012314610488578063cd916098146104df578063f6df921e14610575578063fbc8f916146105f7575b600080fd5b3480156100d657600080fd5b506100f96004803603810190808035600019169060200190929190505050610670565b60405180826000191660001916815260200191505060405180910390f35b34801561012357600080fd5b5061012c610688565b6040518082815260200191505060405180910390f35b34801561014e57600080fd5b5061018d600480360381019080803573ffffffffffffffffffffffffffffffffffffffff1690602001909291908035906020019092919050505061068e565b60405180826000191660001916815260200191505060405180910390f35b3480156101b757600080fd5b506101da600480360381019080803560001916906020019092919050505061075d565b6040518082815260200191505060405180910390f35b3480156101fc57600080fd5b50610257600480360381019080803590602001908201803590602001908080601f0160208091040260200160405190810160405280939291908181526020018383808284378201915050505050509192919290505050610775565b60405180827bffffffffffffffffffffffffffffffffffffffffffffffffffffffff19167bffffffffffffffffffffffffffffffffffffffffffffffffffffffff1916815260200191505060405180910390f35b3480156102b757600080fd5b5061030f6004803603810190808035906020019082018035906020019080806020026020016040519081016040528093929190818152602001838360200280828437820191505050505050919291929050505061084d565b604051808215151515815260200191505060405180910390f35b34801561033557600080fd5b5061036660048036038101908080356000191690602001909291908035600019169060200190929190505050610858565b60405180826000191660001916815260200191505060405180910390f35b34801561039057600080fd5b506103e8600480360381019080803590602001908201803590602001908080602002602001604051908101604052809392919081815260200183836020028082843782019150505050505091929192905050506109ae565b6040518080602001828103825283818151815260200191508051906020019060200280838360005b8381101561042b578082015181840152602081019050610410565b505050509050019250505060405180910390f35b34801561044b57600080fd5b5061046e6004803603810190808035600019169060200190929190505050610f71565b604051808215151515815260200191505060405180910390f35b34801561049457600080fd5b5061049d610f91565b604051808273ffffffffffffffffffffffffffffffffffffffff1673ffffffffffffffffffffffffffffffffffffffff16815260200191505060405180910390f35b3480156104eb57600080fd5b50610557600480360381019080803573ffffffffffffffffffffffffffffffffffffffff16906020019092919080357bffffffffffffffffffffffffffffffffffffffffffffffffffffffff191690602001909291908035600019169060200190929190505050610fb6565b60405180826000191660001916815260200191505060405180910390f35b34801561058157600080fd5b506105d9600480360381019080803590602001908201803590602001908080602002602001604051908101604052809392919081815260200183836020028082843782019150505050505091929192905050506110d4565b60405180826000191660001916815260200191505060405180910390f35b34801561060357600080fd5b5061065660048036038101908080356000191690602001909291908035906020019092919080356000191690602001909291908035906020019082018035906020019190919293919293905050506112a8565b604051808215151515815260200191505060405180910390f35b60046020528060005260406000206000915090505481565b60015481565b60008282604051602001808373ffffffffffffffffffffffffffffffffffffffff1673ffffffffffffffffffffffffffffffffffffffff166c01000000000000000000000000028152601401828152602001925050506040516020818303038152906040526040518082805190602001908083835b6020831015156107285780518252602082019150602081019050602083039250610703565b6001836020036101000a0380198251168184511680821785525050505050509050019150506040518091039020905092915050565b60036020528060005260406000206000915090505481565b6000816040516020018082805190602001908083835b6020831015156107b0578051825260208201915060208101905060208303925061078b565b6001836020036101000a0380198251168184511680821785525050505050509050019150506040516020818303038152906040526040518082805190602001908083835b60208310151561081957805182526020820191506020810190506020830392506107f4565b6001836020036101000a03801982511681845116808217855250505050505090500191505060405180910390209050919050565b600060019050919050565b600081600019168360001916101561090b5782826040516020018083600019166000191681526020018260001916600019168152602001925050506040516020818303038152906040526040518082805190602001908083835b6020831015156108d757805182526020820191506020810190506020830392506108b2565b6001836020036101000a038019825116818451168082178552505050505050905001915050604051809103902090506109a8565b81836040516020018083600019166000191681526020018260001916600019168152602001925050506040516020818303038152906040526040518082805190602001908083835b6020831015156109785780518252602082019150602081019050602083039250610953565b6001836020036101000a038019825116818451168082178552505050505050905001915050604051809103902090505b92915050565b60606000606060008060008060008089516040519080825280602002602001820160405280156109ed5781602001602082028038833980820191505090505b509650600094505b8951851015610e43576000809054906101000a900473ffffffffffffffffffffffffffffffffffffffff1673ffffffffffffffffffffffffffffffffffffffff166370a082318b87815181101515610a4957fe5b906020019060200201516040518263ffffffff167c0100000000000000000000000000000000000000000000000000000000028152600401808273ffffffffffffffffffffffffffffffffffffffff1673ffffffffffffffffffffffffffffffffffffffff168152602001915050602060405180830381600087803b158015610ad157600080fd5b505af1158015610ae5573d6000803e3d6000fd5b505050506040513d6020811015610afb57600080fd5b81019080805190602001909291905050509350600084111515610b1d57600080fd5b6000809054906101000a900473ffffffffffffffffffffffffffffffffffffffff1673ffffffffffffffffffffffffffffffffffffffff166370a082318b60018801815181101515610b6b57fe5b906020019060200201516040518263ffffffff167c0100000000000000000000000000000000000000000000000000000000028152600401808273ffffffffffffffffffffffffffffffffffffffff1673ffffffffffffffffffffffffffffffffffffffff168152602001915050602060405180830381600087803b158015610bf357600080fd5b505af1158015610c07573d6000803e3d6000fd5b505050506040513d6020811015610c1d57600080fd5b81019080805190602001909291905050509250600083111515610c3f57600080fd5b828401880197508985815181101515610c5457fe5b9060200190602002015184604051602001808373ffffffffffffffffffffffffffffffffffffffff1673ffffffffffffffffffffffffffffffffffffffff166c01000000000000000000000000028152601401828152602001925050506040516020818303038152906040526040518082805190602001908083835b602083101515610cf55780518252602082019150602081019050602083039250610cd0565b6001836020036101000a038019825116818451168082178552505050505050905001915050604051809103902091508960018601815181101515610d3557fe5b9060200190602002015183604051602001808373ffffffffffffffffffffffffffffffffffffffff1673ffffffffffffffffffffffffffffffffffffffff166c01000000000000000000000000028152601401828152602001925050506040516020818303038152906040526040518082805190602001908083835b602083101515610dd65780518252602082019150602081019050602083039250610db1565b6001836020036101000a03801982511681845116808217855250505050505090500191505060405180910390209050610e0f8282610858565b9550858786815181101515610e2057fe5b9060200190602002019060001916908160001916815250506002850194506109f5565b600060028b51811515610e5257fe5b06141515610f61578985815181101515610e6857fe5b9060200190602002015184604051602001808373ffffffffffffffffffffffffffffffffffffffff1673ffffffffffffffffffffffffffffffffffffffff166c01000000000000000000000000028152601401828152602001925050506040516020818303038152906040526040518082805190602001908083835b602083101515610f095780518252602082019150602081019050602083039250610ee4565b6001836020036101000a0380198251168184511680821785525050505050509050019150506040518091039020955085878b51815181101515610f4857fe5b9060200190602002019060001916908160001916815250505b8698505050505050505050919050565b60026020528060005260406000206000915054906101000a900460ff1681565b6000809054906101000a900473ffffffffffffffffffffffffffffffffffffffff1681565b6000838383604051602001808473ffffffffffffffffffffffffffffffffffffffff1673ffffffffffffffffffffffffffffffffffffffff166c01000000000000000000000000028152601401837bffffffffffffffffffffffffffffffffffffffffffffffffffffffff19167bffffffffffffffffffffffffffffffffffffffffffffffffffffffff19168152600401826000191660001916815260200193505050506040516020818303038152906040526040518082805190602001908083835b60208310151561109e5780518252602082019150602081019050602083039250611079565b6001836020036101000a038019825116818451168082178552505050505050905001915050604051809103902090509392505050565b600060606000835160405190808252806020026020018201604052801561110a5781602001602082028038833980820191505090505b5091506001845114156111375783600081518110151561112657fe5b9060200190602002015192506112a1565b600090505b83518110156111b157611180848281518110151561115657fe5b90602001906020020151856001840181518110151561117157fe5b90602001906020020151610858565b828281518110151561118e57fe5b90602001906020020190600019169081600019168152505060028101905061113c565b6000600285518115156111c057fe5b06141515611295578360018551038151811015156111da57fe5b906020019060200201516040516020018082600019166000191681526020019150506040516020818303038152906040526040518082805190602001908083835b602083101515611240578051825260208201915060208101905060208303925061121b565b6001836020036101000a038019825116818451168082178552505050505050905001915050604051809103902082855181518110151561127c57fe5b9060200190602002019060001916908160001916815250505b61129e826110d4565b92505b5050919050565b600080846000191660046000896000191660001916815260200190815260200160002054600019161415156112dc57600080fd5b3386604051602001808373ffffffffffffffffffffffffffffffffffffffff1673ffffffffffffffffffffffffffffffffffffffff166c01000000000000000000000000028152601401828152602001925050506040516020818303038152906040526040518082805190602001908083835b602083101515611374578051825260208201915060208101905060208303925061134f565b6001836020036101000a038019825116818451168082178552505050505050905001915050604051809103902090506113dd848480806020026020016040519081016040528093929190818152602001838360200280828437820191505050505050868361141f565b15156113e857600080fd5b8560036000896000191660001916815260200190815260200160002060008282540192505081905550600191505095945050505050565b600080600080849250600091505b86518210156115ab57868281518110151561144457fe5b9060200190602002015190508060001916836000191610156115015782816040516020018083600019166000191681526020018260001916600019168152602001925050506040516020818303038152906040526040518082805190602001908083835b6020831015156114cd57805182526020820191506020810190506020830392506114a8565b6001836020036101000a0380198251168184511680821785525050505050509050019150506040518091039020925061159e565b80836040516020018083600019166000191681526020018260001916600019168152602001925050506040516020818303038152906040526040518082805190602001908083835b60208310151561156e5780518252602082019150602081019050602083039250611549565b6001836020036101000a038019825116818451168082178552505050505050905001915050604051809103902092505b818060010192505061142d565b8560001916836000191614935050505093925050505600a165627a7a72305820625c2c4c333562144693404f9b88dc093b0fe07c33916abf02184c739af1874d0029",
  "source": "pragma solidity 0.4.24;\n\n\ninterface ERC20 {\n  function totalSupply() external view returns (uint256);\n  function balanceOf(address _who) external view returns (uint256);\n}\n\nimport './SafeMath.sol';\n\n// TODO: set expiry for votes\ncontract MerkleVote {\n    using SafeMath for uint;\n\n  // @dev methodID = bytes4(sha3(\"functionName(parameterType, parameterType)\")\n  // @dev functionID = sha3(contractAddress, methodID)\n  // @dev numVotes is sha3(contractAddress, methodID, sha3(parameter, parameter)))\n  // @dev quorumLevel = percentage of tokens required to be locked for the execution of a function\n\n  ERC20 public votingToken;\n\n  uint public securityDeposit;           // Deposit required to submit a new vote. Can be lost if merkle root is invalid\n\n\n  mapping (bytes32 => bool) public voted;     // sha3(functionVoteID, msg.sender) => boolean\n  mapping (bytes32 => uint) public numVotes;    // sha3(contractAddress, methodID, parameterHash)  => numberOfVotes\n  mapping (bytes32 => bytes32) public merkleRoot;   //  root node of a vote merkle tree\n\n\n  constructor(address _votingToken)\n  public {\n      votingToken = ERC20(_votingToken);\n  }\n\n\n\n  function vote(bytes32 _voteID, uint _balanceAtSnapshot, bytes32 _root, bytes32[] _proof)\n  external\n  returns (bool) {\n    require(merkleRoot[_voteID] == _root);\n    bytes32 computedElement = keccak256(abi.encodePacked(msg.sender, _balanceAtSnapshot));\n    require(verifyProof(_proof, _root, computedElement));\n    numVotes[_voteID] += _balanceAtSnapshot;\n    return true;\n  }\n\n  function createVote(address[] _tokenHolders)\n  public\n  returns (bool) {\n      // bytes32[] memory elements = prepareTree(_tokenHolders);\n      // // assert(totalSupply == votingToken.totalSupply());\n      // bytes32 root = createRootProof(elements);\n      // merkleRoot[_voteID] = root;\n      return true;\n  }\n\n\n  function createRootProof(bytes32[] elements)\n  public\n  pure\n  returns (bytes32) {\n    bytes32[] memory nextElements = new bytes32[](elements.length);\n    if (elements.length == 1) return elements[0];\n    for (uint i = 0; i < elements.length; i+=2) {\n      nextElements[i] = getHash(elements[i], elements[i+1]);\n    }\n    if (elements.length % 2 != 0){\n      nextElements[elements.length] = keccak256(abi.encodePacked(elements[elements.length-1]));\n    }\n    return createRootProof(nextElements);\n  }\n\n  function prepareTree(address[] _tokenHolders)\n  public\n  view\n  returns (bytes32[]) {\n    uint totalSupply;\n    bytes32[] memory elements = new bytes32[](_tokenHolders.length);\n    bytes32 leaf;\n    for (uint256 i = 0; i < _tokenHolders.length; i += 2) {\n      uint balanceOne = votingToken.balanceOf(_tokenHolders[i]);\n      require(balanceOne > 0);   // only token holders\n      uint balanceTwo = votingToken.balanceOf(_tokenHolders[i+1]);\n      require(balanceTwo > 0);\n      totalSupply += balanceOne + balanceTwo;\n      bytes32 firstElem = keccak256(abi.encodePacked(_tokenHolders[i], balanceOne));\n      bytes32 secondElem = keccak256(abi.encodePacked(_tokenHolders[i+1], balanceTwo));\n      leaf = getHash(firstElem, secondElem);\n      elements[i] = leaf;\n    }\n    if (_tokenHolders.length % 2 != 0){\n      leaf = keccak256(abi.encodePacked( _tokenHolders[i], balanceOne));\n      elements[_tokenHolders.length] = leaf;\n    }\n    return elements;\n  }\n\n  /**\n   * @dev Verifies a Merkle proof proving the existence of a leaf in a Merkle tree. Assumes that each pair of leaves\n   * and each pair of pre-images are sorted.\n   * @param _proof Merkle proof containing sibling hashes on the branch from the leaf to the root of the Merkle tree\n   * @param _root Merkle root\n   * @param _leaf Leaf of Merkle tree\n   */\n  function verifyProof(bytes32[] _proof, bytes32 _root, bytes32 _leaf)\n  internal\n  pure\n  returns (bool) {\n    bytes32 computedHash = _leaf;\n    for (uint256 i = 0; i < _proof.length; i++) {\n      bytes32 proofElement = _proof[i];\n      if (computedHash < proofElement) {\n        // Hash(current computed hash + current element of the proof)\n        computedHash = keccak256(abi.encodePacked(computedHash, proofElement));\n      } else {\n        // Hash(current element of the proof + current computed hash)\n        computedHash = keccak256(abi.encodePacked(proofElement, computedHash));\n      }\n    }\n    return computedHash == _root;\n  }\n\n  function getHash(bytes32 _firstElem, bytes32 _secondElem)\n  public\n  pure\n  returns(bytes32) {\n    if (_firstElem < _secondElem){\n      return keccak256(abi.encodePacked(_firstElem, _secondElem));\n    }\n    else{\n      return keccak256(abi.encodePacked(_secondElem, _firstElem));\n    }\n  }\n\n  function getVoteID(address _executionAddress, bytes4 _methodID, bytes32 _parameterHash)\n  public\n  returns (bytes32) {\n    return keccak256(abi.encodePacked(_executionAddress, _methodID, _parameterHash));\n  }\n\n  function getMethodID(string _functionString)\n  public\n  pure\n  returns (bytes4) {\n    return bytes4(keccak256(abi.encodePacked(_functionString)));\n  }\n\n  function getParameterHash(address _paramOne, uint _paramTwo)\n  public\n  pure\n  returns (bytes32) {\n    return keccak256(abi.encodePacked(_paramOne, _paramTwo));\n  }\n\n}\n",
  "sourcePath": "/home/dog/code/kyle/merkle/contracts/MerkleVote.sol",
  "compiler": {
    "name": "solc",
    "version": "0.4.24+commit.e67f0147.Emscripten.clang"
  },
  "schemaVersion": "2.0.1",
  "updatedAt": "2018-10-23T19:00:53.754Z"
}